S0190000636F6D706F6E656E7420636F756E7465722E7372656318
S11300006DC087C086C085C084C083C03DC181C027
S113001080C07FC07EC07DC07CC07BC07AC079C0F8
S113002078C077C076C080C0F1C0F0C0EFC0EEC029
S1130030EDC0ECC0EBC0EAC0E9C0E8C0E7C0E6C070
S1130040E2C0E4C0E3C073C075C077C079C07BC0B0
S11300507DC07FC081C083C085C0D8C0D7C0D6C092
S1130060D5C0D4C0D3C0D2C080C0D0C084C0CEC09C
S113007088C08AC08CC08EC0C9C0C8C0C7C096C062
S1130080C5C0C4C0C3C09EC0C1C0C0C0BFC0BEC084
S1130090A8C0BCC0BBC0BAC0B9C0B8C0B7C0B6C0A5
S11300A0B5C0B4C0B3C0B2C0B1C062C0AFC066C056
S11300B0ADC0ACC08AC0AAC070C072C074C0A6C0B3
S11300C078C07AC07CC0A2C0A1C082C084C086C0EF
S11300D09DC08AC08CC08EC090C092C011241FBE27
S11300E0CFE5D4E0DEBFCDBF10E0A0E6B0E0EAE7A4
S11300F0F7E002C005900D92AC36B107D9F720E0C5
S1130100ACE6B0E001C01D92A837B207E1F7BFD159
S113011032C376CF90E0FC01B097EB35F10508F0DF
S113012075C0ED5EFF4F09948FEF88BB089588E298
S113013088BB08958FEA88BB089588E988BB089531
S11301408AE888BB08958FE088BB08958AE488BB59
S1130150089588E488BB08958EEA88BB089588E0F2
S113016088BB08958AE088BB08958CE088BB089515
S113017089E488BB089588E788BB089589E888BB2B
S1130180089588E588BB08958CE588BB089588E6C2
S113019088BB08958DE088BB089588EF88BB0895D7
S11301A08AEE88BB08958DE188BB089589E788BBF2
S11301B008958CEC88BB08958DEC88BB089588EC79
S11301C088BB08958CE188BB08958EE088BB0895B0
S11301D08DED88BB08958AE488BB089589E588BBC2
S11301E0089589E288BB089588EE88BB08958BE161
S11301F088BB08958DEE88BB08958BE088BB089575
S11302008AED88BB08958FED88BB08958FEF88BB76
S1130210089584B3807F84BB85B3807F85BB8FEFD3
S113022088BB87BB0895813069F028F0823089F05B
S11302308330B1F0089585B3826085BB84B3826056
S113024084BB089585B3846085BB84B3846084BB18
S1130250089585B3886085BB84B3886084BB0895A2
S113026085B3816085BB84B3816084BB08958EB5FA
S113027088608EBD89B7806189BF1BBC84E68ABD56
S11302808EB581608EBD08951F920F920FB60F92A6
S113029011242F933F934F935F936F937F938F9387
S11302A09F93AF93BF93EF93FF9383B3807390E0D7
S11302B09595879595958795959587959595879522
S11302C0849904C0109273001092720020916C0003
S11302D0282B243099F018F4213029F019C02B3040
S11302E069F02E30A9F420917200309173002F5FD1
S11302F03F4F30937300209372000AC02091720024
S113030030917300215031093093730020937200AF
S1130310880F880F80936C007CDFE0917100F0E01F
S1130320EC58FF4F8081F6DE809171007CDF809174
S113033071008F5F80937100843010F0109271000F
S1130340839915C020916D0030916E0080916000FA
S1130350909161002817390754F480916D009091B1
S11303606E00019690936E0080936D0010C0809192
S11303706D0090916E00181619064CF480916D0072
S113038090916E00019790936E0080936D00829916
S113039015C020916F0030917000809160009091A1
S11303A061002817390754F480916F009091700010
S11303B001969093700080936F0010C080916F003D
S11303C090917000181619064CF480916F0090916A
S11303D0700001979093700080936F00FF91EF91EC
S11303E0BF91AF919F918F917F916F915F914F9149
S11303F03F912F910F900FBE0F901F90189593E08F
S1130400981B892F0895EF92FF920F931F93CF9318
S11304107C018B01C0E033C08C2FF1DFF801E80FC1
S1130420F11D9701ADECBCEC86D196958795969518
S11304308795969587959C01220F331F880F991FE6
S1130440880F991F880F991F820F931F9701281BEC
S1130450390BC901805D8083CC2329F0E114F104B8
S113046011F480E280839701ADECBCEC64D17C0193
S1130470F694E794F694E794F694E794CF5FC43047
S113048058F2CF911F910F91FF90EF900895CF9361
S1130490DF9300D000D0CDB7DEB784B38F7C84BBAC
S11304A085B3806385BB81B38F7E81BB82B380615A
S11304B082BB81B3877F81BB82B3886082BB81B3F7
S11304C08B7F81BB82B3846082BBD1DEA2DE789451
S11304D040E037C0842F90E0FC01ED59FF4F2081AC
S11304E0209374009C012F5F3F4F2530310510F09D
S11304F020E030E0F901ED59FF4F20812093750091
S11305009C012E5F3F4F2530310510F020E030E094
S1130510F901ED59FF4F2081209376000396853031
S1130520910510F080E090E0FC01ED59FF4F8081CF
S1130530809377008DEE92E00197F1F700C0000000
S11305404F5F483038F2D12CE12CF12C81E000E0EF
S113055010E0F89420917200309173000217130791
S113056011F4DD20A9F060916200633058F08091AD
S1130570720090917300669570E0CAD08B01D12C03
S113058081E006C00091720010917300D12C81E0CB
S11305907894F89440916D0050916E002091600021
S11305A0309161004217530739F020916D0030916A
S11305B06E00232B21F004C0FF24F39401C0F12C1E
S11305C07894F89440916F005091700020916000ED
S11305D0309161004217530739F020916F00309138
S11305E07000232B21F004C0EE24E39401C0E12C1D
S11305F07894882301F1C801112324F488279927CA
S1130600801B910BBE016F5F7F4FFDDEF89480E08D
S113061090E00CC0E1E0F0E0EC0FFD1FE80FF91FE3
S11306202081FC01EC58FF4F208301968430910512
S113063088F3789480E0EE20D1F0909162009830B5
S1130640B0F4990F90936200E4E7F0E020E5208392
S113065022E7218320E22283905D9383E5EDF6E097
S11306603197F1F700C00000DD24D394E12CFF2082
S1130670D1F0909162009330B0F09695909362001F
S1130680E4E7F0E020E5208322E7218320E22283CF
S1130690905D9383E5EDF6E03197F1F700C000003B
S11306A0DD24D394F12CEE20B9F0909162009830BF
S11306B099F4E4E7F0E020E5208322E7218320E2B7
S11306C02283905D9383E5EDF6E03197F1F700C066
S11306D00000DD24D394E12CFF2009F43ACF90915B
S11306E06200923009F035CFE4E7F0E020E52083A2
S11306F022E7218320E22283905D9383E5EDF6E0F7
S11307003197F1F700C00000DD24D394F12C21CF00
S113071097FB072E16F4009406D077FD08D017D067
S113072007FC05D03EF4909581959F4F08957095F0
S113073061957F4F0895A29FB001B39FC001A39F0D
S113074001D0B29F700D811D1124911D0895AA1B23
S1130750BB1B51E107C0AA1FBB1FA617B70710F0A8
S1130760A61BB70B881F991F5A95A9F780959095DA
S10D0770BC01CD010895F894FFCFF9
S10F077AF401022D2D2D737441727400E3
S9030000FC
