:100000006DC087C086C085C084C083C0D0C281C097
:1000100080C040C17EC07DC07CC07BC07AC079C03A
:1000200078C077C076C080C0F4C0F3C0F2C0F1C021
:10003000F0C0EFC0EEC0EDC0ECC0EBC0EAC0E9C05C
:10004000E5C0E1C0E6C073C075C077C079C07BC0B1
:100050007DC07FC081C083C085C0DBC0DAC0D9C08D
:10006000D8C0D7C0D6C0D5C080C0D3C084C0D1C08E
:1000700088C08AC08CC08EC0CCC0CBC0CAC096C05D
:10008000C8C0C7C0C6C09EC0C4C0C3C0C2C0C1C073
:10009000A8C0BFC0BEC0BDC0BCC0BBC0BAC0B9C094
:1000A000B8C0B7C0B6C0B5C0B4C062C0B2C066C048
:1000B000B0C0AFC08AC0ADC070C072C074C0A9C0AB
:1000C00078C07AC07CC0A5C0A4C082C084C086C0ED
:1000D000A0C08AC08CC08EC090C092C011241FBE28
:1000E000CFE5D4E0DEBFCDBF10E0A0E6B0E0E4EAAB
:1000F000F7E002C005900D92AC37B107D9F720E0C8
:10010000ACE7B0E001C01D92A339B207E1F798D285
:1001100047C376CF90E0FC01B097EB35F10508F0CE
:1001200078C0ED5EFF4F09948FEF88BB089588E299
:1001300088BB08958FEA88BB089588E988BB089535
:100140008AE888BB08958FE088BB08958AE488BB5D
:10015000089588E488BB08958EEA88BB089588E0F6
:1001600088BB08958AE088BB08958CE088BB089519
:1001700089E488BB089588E788BB089589E888BB2F
:10018000089588E588BB08958CE588BB089588E6C6
:1001900088BB08958DE088BB089588EF88BB0895DB
:1001A0008AEE88BB08958DE188BB089589E788BBF6
:1001B00008958CEC88BB08958DEC88BB089588EC7D
:1001C00088BB08958CE188BB08958EE088BB0895B4
:1001D0008DED88BB08958AE488BB089589E588BBC6
:1001E000089589E288BB089588EE88BB08958BE165
:1001F00088BB08958DEE88BB08958BE088BB089579
:100200008AED88BB089587EF88BB08958FED88BB82
:1002100008958FEF88BB089585B3807F85BB8FEFEE
:1002200088BB0895813069F028F0823089F08330EE
:10023000B1F0089585B3826085BB84B3826084BBCE
:10024000089585B3846085BB84B3846084BB0895BE
:1002500085B3886085BB84B3886084BB089585B30B
:10026000816085BB84B3816084BB089593E0981B53
:10027000892F089584B3807F84BB85B3807F85BB3D
:100280008FEF87BB88BB81E083BF89B7816089BF5F
:1002900012BE08951F920F920FB60F9211242F9342
:1002A0003F934F935F936F937F938F939F93AF93FE
:1002B000BF93EF93FF93B0DFE0918400F0E0E2574B
:1002C000FF4F808127DF80918400ACDF8091840024
:1002D0008F5F80938400843010F010928400839BA1
:1002E00005C0829B03C081E080936000839915C0A4
:1002F0002091870030918800809161009091620088
:100300002817390754F4809187009091880001964E
:10031000909388008093870010C08091870090910F
:100320008800181619064CF4809187009091880077
:1003300001979093880080938700829915C020913F
:10034000890030918A0080916100909162002817A5
:10035000390754F48091890090918A000196909316
:100360008A008093890010C08091890090918A0052
:10037000181619064CF48091890090918A00019713
:1003800090938A0080938900FF91EF91BF91AF9184
:100390009F918F917F916F915F914F913F912F919D
:1003A0000F900FBE0F901F9018950F931F93CF9330
:1003B0008C01C0E038C08C2F59DF482F50E09801E5
:1003C000ADECBCECCDD19695879596958795969595
:1003D00087959C01220F331F880F991F880F991F43
:1003E000880F991F820F931F9801281B390BC90191
:1003F000FA01E058FF4F805D8083CC2341F0011566
:10040000110529F4FA01E058FF4F80E2808398013A
:10041000ADECBCECA5D18C0116950795169507950A
:1004200016950795CF5FC43030F2F89480E090E0E5
:1004300009C0FC01E058FF4F2081FC01E257FF4F4B
:100440002083019684309105A0F37894CF911F9179
:100450000F91089540E048C0842F90E0FC01E859D6
:10046000FF4F208120937C009C012F5F3F4F233161
:10047000310510F020E030E0F901E859FF4F20810C
:1004800020937D009C012E5F3F4F2331310510F0FA
:1004900020E030E0F901E859FF4F208120937E00F1
:1004A00003968331910510F080E090E0FC01E8595B
:1004B000FF4F808180937F00F89480E090E009C036
:1004C000FC01E458FF4F2081FC01E257FF4F2083DD
:1004D000019684309105A0F3789481EE94E0019721
:1004E000F1F700C000004F5F433108F4B5CF81E061
:1004F0008093920008952091870030918800809128
:100500006100909162002817390739F480916000EA
:10051000882319F081E08093860020918900309132
:100520008A0080916100909162002817390739F4A0
:1005300080916000882319F081E080938500089500
:100540008EB588608EBD89B7806189BF1BBC84E68B
:100550008ABD8EB581608EBD08952F923F92109214
:100560006000109285001092860080916700805D87
:1005700080936600F89480E090E009C0FC01ED599A
:10058000FF4F2081FC01E257FF4F2083019684300A
:100590009105A0F3789487E893E10197F1F700C003
:1005A000000081E0F10180833F902F9008951F9219
:1005B0000F920FB60F9211242F933F938F939F9317
:1005C00083B3807390E095958795959587959595DC
:1005D000879595958795849904C010928D00109207
:1005E0008C0020918B00282B243099F018F42130B6
:1005F00029F019C02B3069F02E30A9F420918C001D
:1006000030918D002F5F3F4F30938D0020938C00F1
:100610000AC020918C0030918D0021503109309317
:100620008D0020938C00880F880F80938B009F9102
:100630008F913F912F910F900FBE0F901F901895A3
:10064000CF93DF931F92CDB7DEB7198284B38F7C2F
:1006500084BB85B3806385BB81B3837E81BB82B35A
:100660008C6182BB07DE6CDF7894F4DE00E010E082
:1006700042DFF89480918C0090918D000817190743
:1006800019F489818823A9F0198260916700633089
:1006900048F080918C0090918D00669570E04DD06F
:1006A0008B0104C000918C0010918D0081E080933B
:1006B0009200789480919200882351F010929200D9
:1006C000C801112324F488279927801B910B6DDE24
:1006D00080918500882359F080916700883038F434
:1006E000880F80936700CE0101961C0136DF809150
:1006F0008600882359F080916700833038F0869512
:1007000080936700CE0101961C0127DF8091850050
:10071000882321F080916700883051F08091860015
:10072000882309F4A5CF80916700823009F0A0CF1B
:10073000CE0101961C0111DF9BCF97FB072E16F40B
:10074000009406D077FD08D017D007FC05D03EF402
:10075000909581959F4F0895709561957F4F08956D
:10076000A29FB001B39FC001A39F01D0B29F700DA3
:10077000811D1124911D0895AA1BBB1B51E107C0C7
:10078000AA1FBB1FA617B70710F0A61BB70B881F21
:10079000991F5A95A9F780959095BC01CD010895B0
:0407A000F894FFCFFB
:1007A400010A0050722030022020207374417274B8
:0C07B40020734330724520763130300055
:00000001FF
