S0190000636F6D706F6E656E7420636F756E7465722E7372656318
S11300006DC087C086C085C084C083C03DC181C027
S113001080C07FC07EC07DC07CC07BC07AC079C0F8
S113002078C077C076C080C0F1C0F0C0EFC0EEC029
S1130030EDC0ECC0EBC0EAC0E9C0E8C0E7C0E6C070
S1130040E2C0E4C0E3C073C075C077C079C07BC0B0
S11300507DC07FC081C083C085C0D8C0D7C0D6C092
S1130060D5C0D4C0D3C0D2C080C0D0C084C0CEC09C
S113007088C08AC08CC08EC0C9C0C8C0C7C096C062
S1130080C5C0C4C0C3C09EC0C1C0C0C0BFC0BEC084
S1130090A8C0BCC0BBC0BAC0B9C0B8C0B7C0B6C0A5
S11300A0B5C0B4C0B3C0B2C0B1C062C0AFC066C056
S11300B0ADC0ACC08AC0AAC070C072C074C0A6C0B3
S11300C078C07AC07CC0A2C0A1C082C084C086C0EF
S11300D09DC08AC08CC08EC090C092C011241FBE27
S11300E0CFE5D4E0DEBFCDBF10E0A0E6B0E0E6E8A7
S11300F0F6E002C005900D92A636B107D9F720E0CC
S1130100A6E6B0E001C01D92AC36B207E1F793D188
S1130110B8C276CF90E0FC01B097EB35F10508F05A
S113012075C0ED5EFF4F09948FEF88BB089588E298
S113013088BB08958FEA88BB089588E988BB089531
S11301408AE888BB08958FE088BB08958AE488BB59
S1130150089588E488BB08958EEA88BB089588E0F2
S113016088BB08958AE088BB08958CE088BB089515
S113017089E488BB089588E788BB089589E888BB2B
S1130180089588E588BB08958CE588BB089588E6C2
S113019088BB08958DE088BB089588EF88BB0895D7
S11301A08AEE88BB08958DE188BB089589E788BBF2
S11301B008958CEC88BB08958DEC88BB089588EC79
S11301C088BB08958CE188BB08958EE088BB0895B0
S11301D08DED88BB08958AE488BB089589E588BBC2
S11301E0089589E288BB089588EE88BB08958BE161
S11301F088BB08958DEE88BB08958BE088BB089575
S11302008AED88BB08958FED88BB08958FEF88BB76
S1130210089584B3807F84BB85B3807F85BB8FEFD3
S113022088BB87BB0895813069F028F0823089F05B
S11302308330B1F0089585B3826085BB84B3826056
S113024084BB089585B3846085BB84B3846084BB18
S1130250089585B3886085BB84B3886084BB0895A2
S113026085B3816085BB84B3816084BB08958EB5FA
S113027088608EBD89B7806189BF1BBC84E68ABD56
S11302808EB581608EBD08951F920F920FB60F92A6
S113029011242F933F934F935F936F937F938F9387
S11302A09F93AF93BF93EF93FF9383B3807390E0D7
S11302B09595879595958795959587959595879522
S11302C0849904C010926B0010926A002091660019
S11302D0282B243099F018F4213029F019C02B3040
S11302E069F02E30A9F420916A0030916B002F5FE1
S11302F03F4F30936B0020936A000AC020916A003C
S113030030916B002150310930936B0020936A00C7
S1130310880F880F809366007CDFE0916900F0E02D
S1130320EF59FF4F8081F6DE809169007CDF809178
S113033069008F5F80936900843010F01092690027
S1130340839908C080916700823320F48F5F809383
S1130350670007C080916700882319F0815080935B
S11303606700829908C080916800823320F48F5F0F
S11303708093680007C080916800882319F0815039
S113038080936800FF91EF91BF91AF919F918F91FE
S11303907F916F915F914F913F912F910F900FBE7D
S11303A00F901F90189593E0981B892F0895EF9252
S11303B0FF920F931F93CF937C018B01C0E033C056
S11303C08C2FF1DFF801E80FF11D9701ADECBCECC7
S11303D038D19695879596958795969587959C019E
S11303E0220F331F880F991F880F991F880F991F99
S11303F0820F931F9701281B390BC901805D8083ED
S1130400CC2329F0E114F10411F480E280839701F4
S1130410ADECBCEC16D17C01F694E794F694E79429
S1130420F694E794CF5FC43058F2CF911F910F91A7
S1130430FF90EF900895CF93DF9300D000D0CDB715
S1130440DEB784B38F7C84BB85B3806385BB81B303
S11304508F7E81BB82B3806182BB81B3877F81BB86
S113046082B3886082BB81B38B7F81BB82B384609B
S113047082BBFDDECEDE789483EC99E00197F1F740
S113048000C00000E12CF12C91E000E010E0F894B1
S113049020916A0030916B000217130799F0609164
S11304A06000633050F080916A0090916B00669513
S11304B070E0B4D08B0191E005C000916A00109106
S11304C06B0091E07894F89480916700823319F07E
S11304D0882321F004C0FF24F39401C0F12C789404
S11304E0F89480916800823319F0882321F004C0C5
S11304F0EE24E39401C0E12C7894992301F1C8011E
S1130500112324F488279927801B910BBE016F5F68
S11305107F4F4DDFF89480E090E00CC0E1E0F0E024
S1130520EC0FFD1FE80FF91F2081FC01EF59FF4F6D
S1130530208301968430910588F3789490E0EE202E
S1130540C9F0809160008230A9F484E08093600057
S1130550E1E6F0E080E5808382E7818387E68283B9
S113056084E3838383EC99E00197F1F700C00000F2
S1130570E12C91E0EE20C9F0809160008430A9F470
S113058088E080936000E1E6F0E080E5808382E724
S1130590818387E6828388E3838383EC99E00197F0
S11305A0F1F700C00000E12C91E0FF20C9F0809138
S11305B060008830A9F484E080936000E1E6F0E014
S11305C080E5808382E7818387E6828384E3838373
S11305D083EC99E00197F1F700C00000F12C91E061
S11305E0FF2009F454CF80916000843009F04FCF8C
S11305F082E080936000E1E6F0E080E5808382E7BA
S1130600818387E6828382E3838383EC99E0019785
S1130610F1F700C00000F12C91E039CF97FB072ED1
S113062016F4009406D077FD08D017D007FC05D047
S11306303EF4909581959F4F0895709561957F4FF5
S11306400895A29FB001B39FC001A39F01D0B29FA0
S1130650700D811D1124911D0895AA1BBB1B51E12E
S113066007C0AA1FBB1FA617B70710F0A61BB70B1E
S1130670881F991F5A95A9F780959095BC01CD01C3
S10906800895F894FFCF79
S1090686027374417200CE
S9030000FC
