S0190000636F6D706F6E656E7420636F756E7465722E7372656318
S11300006DC087C086C085C084C083C03DC181C027
S113001080C07FC07EC07DC07CC07BC07AC079C0F8
S113002078C077C076C080C0F1C0F0C0EFC0EEC029
S1130030EDC0ECC0EBC0EAC0E9C0E8C0E7C0E6C070
S1130040E2C0E4C0E3C073C075C077C079C07BC0B0
S11300507DC07FC081C083C085C0D8C0D7C0D6C092
S1130060D5C0D4C0D3C0D2C080C0D0C084C0CEC09C
S113007088C08AC08CC08EC0C9C0C8C0C7C096C062
S1130080C5C0C4C0C3C09EC0C1C0C0C0BFC0BEC084
S1130090A8C0BCC0BBC0BAC0B9C0B8C0B7C0B6C0A5
S11300A0B5C0B4C0B3C0B2C0B1C062C0AFC066C056
S11300B0ADC0ACC08AC0AAC070C072C074C0A6C0B3
S11300C078C07AC07CC0A2C0A1C082C084C086C0EF
S11300D09DC08AC08CC08EC090C092C011241FBE27
S11300E0CFE5D4E0DEBFCDBF10E0A0E6B0E0E0EFA6
S11300F0F5E002C005900D92A636B107D9F720E0CD
S1130100A6E6B0E001C01D92AC36B207E1F78FD18C
S11301106DC276CF90E0FC01B097EB35F10508F0A5
S113012075C0ED5EFF4F09948FEF88BB089588E298
S113013088BB08958FEA88BB089588E988BB089531
S11301408AE888BB08958FE088BB08958AE488BB59
S1130150089588E488BB08958EEA88BB089588E0F2
S113016088BB08958AE088BB08958CE088BB089515
S113017089E488BB089588E788BB089589E888BB2B
S1130180089588E588BB08958CE588BB089588E6C2
S113019088BB08958DE088BB089588EF88BB0895D7
S11301A08AEE88BB08958DE188BB089589E788BBF2
S11301B008958CEC88BB08958DEC88BB089588EC79
S11301C088BB08958CE188BB08958EE088BB0895B0
S11301D08DED88BB08958AE488BB089589E588BBC2
S11301E0089589E288BB089588EE88BB08958BE161
S11301F088BB08958DEE88BB08958BE088BB089575
S11302008AED88BB08958FED88BB08958FEF88BB76
S1130210089584B3807F84BB85B3807F85BB8FEFD3
S113022088BB87BB0895813069F028F0823089F05B
S11302308330B1F0089585B3826085BB84B3826056
S113024084BB089585B3846085BB84B3846084BB18
S1130250089585B3886085BB84B3886084BB0895A2
S113026085B3816085BB84B3816084BB08958EB5FA
S113027088608EBD89B7806189BF1BBC84E68ABD56
S11302808EB581608EBD08951F920F920FB60F92A6
S113029011242F933F934F935F936F937F938F9387
S11302A09F93AF93BF93EF93FF9383B3807390E0D7
S11302B09595879595958795959587959595879522
S11302C0849904C010926B0010926A002091660019
S11302D0282B243099F018F4213029F019C02B3040
S11302E069F02E30A9F420916A0030916B002F5FE1
S11302F03F4F30936B0020936A000AC020916A003C
S113030030916B002150310930936B0020936A00C7
S1130310880F880F809366007CDFE0916900F0E02D
S1130320EF59FF4F8081F6DE809169007CDF809178
S113033069008F5F80936900843010F01092690027
S1130340839908C0809167008A3020F48F5F80937E
S1130350670005C08091670081508093670082998F
S113036008C0809168008A3020F48F5F8093680011
S113037005C080916800815080936800FF91EF91DF
S1130380BF91AF919F918F917F916F915F914F91A9
S11303903F912F910F900FBE0F901F90189593E0EF
S11303A0981B892F0895EF92FF920F931F93CF9379
S11303B07C018B01C0E033C08C2FF1DFF801E80F22
S11303C0F11D9701ADECBCEC05D1969587959695FA
S11303D08795969587959C01220F331F880F991F47
S11303E0880F991F880F991F820F931F9701281B4D
S11303F0390BC901805D8083CC2329F0E114F10419
S113040011F480E280839701ADECBCECE3D07C0175
S1130410F694E794F694E794F694E794CF5FC430A7
S113042058F2CF911F910F91FF90EF900895CF93C1
S1130430DF9300D000D0CDB7DEB784B38F7C84BB0C
S113044085B3806385BB81B38F7E81BB82B38061BA
S113045082BB81B3877F81BB82B3886082BB81B357
S11304608B7F81BB82B3846082BB01DFD2DE789450
S113047083EC99E00197F1F700C0000081E0E12CE2
S1130480F12CF89420916A0030916B00E216F30687
S113049029F0E0906A00F0906B0081E07894F89481
S11304A0909167009A3011F411E001C010E0789443
S11304B0F894909168009A3011F401E001C000E0D2
S11304C07894882301F1C701FF2024F48827992711
S11304D08E199F09BE016F5F7F4F65DFF89480E03E
S11304E090E00CC0E1E0F0E0EC0FFD1FE80FF91F15
S11304F02081FC01EF59FF4F208301968430910540
S113050088F3789480E00023B9F0909160009230F1
S113051099F494E090936000E1E6F0E090E5908334
S113052092E7918397E6928394E39383E3ECF9E073
S11305303197F1F700C000000023B9F090916000FA
S1130540943099F498E090936000E1E6F0E090E54F
S1130550908392E7918397E6928398E39383E3EC05
S1130560F9E03197F1F700C000001123B9F0909140
S11305706000983099F494E090936000E1E6F0E034
S113058090E5908392E7918397E6928394E3938333
S1130590E3ECF9E03197F1F700C00000112309F40E
S11305A070CF90916000943009F06BCF92E09093FB
S11305B06000E1E6F0E090E5908392E7918397E6AE
S11305C0928392E39383E3ECF9E03197F1F700C06F
S11305D0000057CFA29FB001B39FC001A39F01D0D9
S11305E0B29F700D811D1124911D0895F894FFCFC1
S10905F002737441720065
S9030000FC
